:040000005AEF00F0C3
:100008005F82FACFDCF0FBCFDDF0E1CFDEF0E2CFAC
:10001800DFF0D9CFE0F0DACFE1F0F3CFE2F0F4CFC0
:10002800E3F0F6CFE4F0F7CFE5F0F8CFE6F0F5CF60
:10003800E7F0F2AC22EF00F024EF00F040EF00F020
:100048009DAA29EF00F02BEF00F040EF00F09EAAE8
:1000580030EF00F032EF00F040EF00F002D840EF50
:1000680000F00500FA6E0101AA51FD6EAB51FE6E5B
:10007800AC51FF6EFA501200E7C0F5FFE6C0F8FF7A
:10008800E5C0F7FFE4C0F6FFE3C0F4FFE2C0F3FF0A
:10009800E1C0DAFFE0C0D9FFDFC0E2FFDEC0E1FF68
:1000A800DDC0FBFFDCC0FAFF5F92110022EF24F0F5
:1010000000269E783EEEE9913E13CECC3EAAAA2A57
:101010003FD1F717378071313F252E306600696E5A
:1010200066006E616E0025640000000E0001816F95
:101030004DC084F04EC085F04FC086F050C087F0A0
:1010400087BF27EF08F025EF08F03BEF08F0010E0F
:10105000816F84C001F085C002F086C003F087C0B4
:1010600004F0AEEC26F001C084F002C085F003C0AD
:1010700086F004C087F0000E0001836F000E826FBF
:10108000F4C071F0F5C072F08151D8B44AEF08F0A5
:101090004CEF08F060EF08F08151D8A452EF08F04F
:1010A00054EF08F05AEF08F0000E676F2B0E666FD2
:1010B0005EEF08F0000E676F2D0E666F66C081F060
:1010C00084C001F085C002F086C003F087C004F040
:1010D000C4EC1EF001040210D8A471EF08F073EF05
:1010E00008F0A6EF08F000018151D8B47AEF08F0BB
:1010F0007CEF08F085EF08F081C01AF17107D8A0E5
:101100007207000E836F010E826F1A0E8225016E28
:10111000010E8321026E1E0E036E100E046ECFECC4
:1011200025F00001FD0E7127FF0E72234BC011F058
:101130004CC012F01A0E136E010E146E71C015F031
:1011400072C016F0D0EC22F010EF0DF084C001F068
:1011500085C002F086C003F087C004F0C4EC1EF026
:1011600001500210D8A4B7EF08F0B9EF08F0D9EF9A
:1011700008F000018151D8B4C0EF08F0C2EF08F0C8
:10118000CBEF08F081C01AF17107D8A07207000EEA
:10119000836F010E826F1A0E8225016E010E83216C
:1011A000026E220E036E100E046ECFEC25F091EF4E
:1011B00008F0000E0001886F000E896F800E8A6FA4
:1011C0003F0E8B6F000E706F000E6F6F84C001F0CA
:1011D00085C002F086C003F087C004F0000E056EE3
:1011E000000E066E000E076E000E086E7BEC22F0FD
:1011F000D8B0FDEF08F0FFEF08F0DEEF09F00CEFDC
:1012000009F073C088F074C089F075C08AF076C0A8
:101210008BF000016F4B702B88C001F089C002F089
:101220008AC003F08BC004F0000E056E000E066E3F
:10123000200E076E410E086E15EC13F001C073F01E
:1012400002C074F003C075F004C076F00001735161
:10125000845D016E74518559026E75518659036E15
:1012600076518759046EEFEC23F004BE43EF09F08A
:1012700004500310021009E1020E015CD8A043EFF4
:1012800009F045EF09F001EF09F073C01AF074C0DE
:101290001BF075C01CF076C01DF084C01EF085C028
:1012A0001FF086C020F087C021F042EC1EF0D8A0CD
:1012B0005CEF09F05EEF09F001EF09F000018851E1
:1012C000845D016E89518559026E8A518659036E7B
:1012D0008B518759046EEFEC23F004BE7DEF09F0CB
:1012E00004500310021007E1020E015CD8B07BEF3E
:1012F00009F07DEF09F0C5EF09F088C084F089C0DE
:1013000085F08AC086F08BC087F0DEEF09F088C0D8
:101310001AF089C01BF08AC01CF08BC01DF0000EB3
:101320001E6E000E1F6E200E206E410E216E0DEC03
:1013300017F01AC088F01BC089F01CC08AF01DC0CD
:101340008BF000016F07D8A070078851845D016E93
:1013500089518559026E8A518659036E8B5187597E
:10136000046EEFEC23F004BEC3EF09F00450031049
:10137000021007E1020E015CD8B0C1EF09F0C3EF23
:1013800009F0C5EF09F07DEF09F084C01AF085C0BF
:101390001BF086C01CF087C01DF088C01EF089C0FD
:1013A0001FF08AC020F08BC021F042EC1EF0D8A0C4
:1013B000DCEF09F0DEEF09F087EF09F051C069F0CA
:1013C00069C06AF00001F7BFE8EF09F0EAEF09F041
:1013D000F0EF09F0F6C062F0F7C063F0F4EF09F047
:1013E000000E636F060E626F62C06DF063C06EF038
:1013F0006D4B6E2B660E6A19D8A401EF0AF003EF4D
:101400000AF023EF0AF070BF0AEF0AF008EF0AF0C3
:1014100016EF0AF0000E886F000E896F800E8A6F3B
:101420003F0E8B6F000E706F000E6F6F670E6919A5
:10143000D8B41DEF0AF01FEF0AF023EF0AF06F5146
:101440006D2770516E23000E786F000E776F84C089
:1014500079F085C07AF086C07BF087C07CF088C0C8
:1014600073F089C074F08AC075F08BC076F0B4EF69
:101470000AF079C01AF07AC01BF07BC01CF07CC067
:101480001DF088C01EF089C01FF08AC020F08BC0FC
:1014900021F00DEC17F01AC033F01BC034F01CC063
:1014A00035F01DC036F073EC1AF033C07DF034C057
:1014B0007EF035C07FF036C080F07DC001F07EC088
:1014C00002F07FC003F080C004F0BFEC1DF001C04B
:1014D0006BF002C06CF079C043F07AC044F07BC07E
:1014E00045F07CC046F07DC005F07EC006F07FC0B0
:1014F00007F080C008F088C001F089C002F08AC0FF
:1015000003F08BC004F015EC13F001C047F002C0EB
:1015100048F003C049F004C04AF089EC25F043C00C
:1015200079F044C07AF045C07BF046C07CF088C0BA
:101530001AF089C01BF08AC01CF08BC01DF0000E91
:101540001E6E000E1F6E200E206E410E216E0DECE1
:1015500017F01AC088F01BC089F01CC08AF01DC0AB
:101560008BF00001774B782B6D51775D7851800AB5
:10157000526E6E51800A5258D8A0C1EF0AF0C3EFE4
:101580000AF039EF0AF088C001F089C002F08AC081
:1015900003F08BC004F0000E056E000E066EA00E68
:1015A000076E400E086E15EC13F001C07DF002C00E
:1015B0007EF003C07FF004C080F079C01AF07AC0DA
:1015C0001BF07BC01CF07CC01DF07DC01EF07EC0F7
:1015D0001FF07FC020F080C021F042EC1EF0D8B098
:1015E000F4EF0AF0F6EF0AF001EF0BF0000E000145
:1015F0007D6F000E7E6F000E7F6F000E806F2AEFF2
:101600000BF079C001F07AC002F07BC003F07CC01F
:1016100004F07DC005F07EC006F07FC007F080C0FA
:1016200008F07BEC22F0D8A018EF0BF01AEF0BF0CB
:101630002AEF0BF000016BB120EF0BF022EF0BF063
:101640002AEF0BF0000E7D6F000E7E6F000E7F6F95
:10165000000E806F84C033F085C034F086C035F052
:1016600087C036F07DC037F07EC038F07FC039F0DB
:1016700080C03AF0B5EC10F033C079F034C07AF0A5
:1016800035C07BF036C07CF079C01AF07AC01BF010
:101690007BC01CF07CC01DF0000E056E000E066EB7
:1016A000200E076E410E086E73C001F074C002F088
:1016B00075C003F076C004F015EC13F001C01EF005
:1016C00002C01FF003C020F004C021F042EC1EF065
:1016D000D8A06DEF0BF06FEF0BF098EF0BF000015F
:1016E0006F4B702B73C001F074C002F075C003F033
:1016F00076C004F0000E056E000E066E200E076E1A
:10170000410E086E15EC13F001C073F002C074F0C6
:1017100003C075F004C076F0660E00016A19D8A403
:1017200094EF0BF096EF0BF098EF0BF06D4B6E2BE8
:1017300073C088F074C089F075C08AF076C08BF0F1
:101740006FC060F070C061F0000E0001686F000EA5
:10175000656F000E646F000E786F000E776F96EF66
:101760000CF079C01AF07AC01BF07BC01CF07CC072
:101770001DF088C01EF089C01FF08AC020F08BC009
:1017800021F00DEC17F01AC033F01BC034F01CC070
:1017900035F01DC036F073EC1AF033C07DF034C064
:1017A0007EF035C07FF036C080F07DC001F07EC095
:1017B00002F07FC003F080C004F0BFEC1DF002BE59
:1017C000EDEF0BF0025007E10A0E015CD8B0EBEF31
:1017D0000BF0EDEF0BF0FDEF0BF07DC001F07EC0E4
:1017E00002F07FC003F080C004F0BFEC1DF001C028
:1017F0006BF002C06CF002EF0CF0000E00016C6F99
:10180000090E6B6F00016851D8A409EF0CF00BEFC3
:101810000CF033EF0CF061BF12EF0CF010EF0CF096
:1018200033EF0CF01A0E8225D96E010E8321DA6E89
:101830002E0EDF6E824B832B7107D8A07207010E2C
:10184000686F33EF0CF01A0E8225D96E010E8321DA
:10185000DA6E300EDF6E824B832B7107D8A07207D1
:101860006407D8A0650764516511D8A43AEF0CF05D
:101870003CEF0CF023EF0CF01A0E8225D96E010E0E
:101880008321DA6E6B51300FDF6E824B832B710731
:10189000D8A0720779C043F07AC044F07BC045F00D
:1018A0007CC046F07DC005F07EC006F07FC007F02A
:1018B00080C008F088C001F089C002F08AC003F03F
:1018C0008BC004F015EC13F001C047F002C048F0E3
:1018D00003C049F004C04AF089EC25F043C079F018
:1018E00044C07AF045C07BF046C07CF088C01AF056
:1018F00089C01BF08AC01CF08BC01DF0000E1E6E4C
:10190000000E1F6E200E206E410E216E0DEC17F0A2
:101910001AC088F01BC089F01CC08AF01DC08BF073
:1019200000016007D8A06107774B782B6D51775D78
:101930007851800A526E6E51800A5258D8B0A3EF87
:101940000CF0A5EF0CF0B3EF0CF083BFB1EF0CF08F
:10195000835109E14B0E825DD8A0B1EF0CF0B3EFDB
:101960000CF0B1EF0BF0000E786F4F0E776F1A0E80
:101970007725D96E010E7821DA6EDF6A1A0E526E63
:10198000010E536E8251525E8351535A7751522445
:10199000016E78515320026E1A0E036E010E046E12
:1019A00082C005F083C006F0F3EC24F00001825100
:1019B000775D826F83517859836F8151D8A4E3EFAB
:1019C0000CF0E6EF0CF0010EE7EF0CF0000E776F75
:1019D000786B8151D8B4EFEF0CF0F1EF0CF0FCEF25
:1019E0000CF08207D8A083071A0E8225D96E010E4B
:1019F0008321DA6E81C0DFFF7751715F7851725BAE
:101A00004BC011F04CC012F01A0E8225136E010E5D
:101A10008321146E71C015F072C016F0D0EC22F064
:101A20001200F0C096F0F1C097F0F2C098F0F3C049
:101A300099F04BC096F04CC097F04DC098F04EC056
:101A400099F096C09EF097C09FF098C0A0F099C002
:101A5000A1F0000E00017D6F000E7C6FA15109E125
:101A6000800EA05DD8A037EF0DF039EF0DF057EFE5
:101A70000DF09EC04FF09FC050F0A0C051F0A1C02B
:101A800052F0200E49EF0DF0D890523251325032C0
:101A90004F32E82E44EF0DF04F50501051105210BD
:101AA000D8B455EF0DF057EF0DF019EF0EF0D890B8
:101AB0009E354F6E9F35506EA035516EA135526EDA
:101AC0004F50501051105210D8A469EF0DF06BEF29
:101AD0000DF099EF0DF0000E1A6E000E1B6E800EC9
:101AE0001C6EBF0E1D6E4BC005F04CC006F04DC005
:101AF00007F04EC008F04BC001F04CC002F04DC0E2
:101B000003F04EC004F015EC13F001C01EF002C04B
:101B10001FF003C020F004C021F00DEC17F01AC034
:101B20004BF01BC04CF01CC04DF01DC04EF0B4EF8C
:101B300010F09EC04FF09FC050F0A0C051F0A1C067
:101B400052F0200EA9EF0DF0D8905232513250329F
:101B50004F32E82EA4EF0DF04F505010511052109C
:101B6000D8B4B5EF0DF0B7EF0DF0E9EF0DF0000EC2
:101B7000F96F210EF86F4BC047F04CC048F04DC0D4
:101B800049F04EC04AF04BC043F04CC044F04DC049
:101B900045F04EC046F089EC25F043C01AF044C031
:101BA0001BF045C01CF046C01DF0000E1E6E000E5E
:101BB0001F6E000E206E000E216E0DEC17F01AC085
:101BC0004BF01BC04CF01CC04DF01DC04EF0B4EFEC
:101BD00010F0E70E7C27FF0E7D234BC001F04CC0B8
:101BE00002F04DC003F04EC004F0000E056E000E72
:101BF000066E000E076E4C0E086E15EC13F001C059
:101C00004BF002C04CF003C04DF004C04EF04BC08E
:101C100096F04CC097F04DC098F04EC099F096C029
:101C20009EF097C09FF098C0A0F099C0A1F046EF39
:101C30000EF0800EA05D7F0EA159D8A022EF0EF00D
:101C400024EF0EF02EEF0EF04BC04BF04CC04CF0DA
:101C50004DC04DF04EC04EF0B4EF10F0800EA01904
:101C600009E13F0EA1199E119F11D8A43AEF0EF081
:101C70003CEF0EF046EF0EF0000E4B6E000E4C6E79
:101C8000000E4D6E000E4E6EB4EF10F00D0E000102
:101C90009E27FB0E9F234A0EA023000EA1239EC069
:101CA0004FF09FC050F0A0C051F0A1C052F0180EEC
:101CB0005FEF0EF0D8905232513250324F32E82E50
:101CC0005AEF0EF0810E4F24536EFF0E5020546ECB
:101CD00053507C2754507D23FF0E9E154F6EFF0EF0
:101CE0009F15506E7F0EA015516E000EA115526EFD
:101CF000F30E4F249E6F040E50209F6F350E51201F
:101D0000A06F3F0E5220A16F9EC096F09FC097F02B
:101D1000A0C098F0A1C099F096C04BF097C04CF0CD
:101D200098C04DF099C04EF04BC033F04CC034F029
:101D30004DC035F04EC036F0000E376E000E386ED6
:101D4000800E396EBF0E3A6EB5EC10F033C09AF0CB
:101D500034C09BF035C09CF036C09DF09AC01AF09C
:101D60009BC01BF09CC01CF09DC01DF0000E376E88
:101D7000000E386E000E396E400E3A6E9AC033F087
:101D80009BC034F09CC035F09DC036F0B5EC10F02F
:101D900033C01EF034C01FF035C020F036C021F033
:101DA0000DEC17F01AC086F01BC087F01CC088F03D
:101DB0001DC089F086C001F087C002F088C003F022
:101DC00089C004F086C005F087C006F088C007F01F
:101DD00089C008F015EC13F001C08AF002C08BF046
:101DE00003C08CF004C08DF08AC001F08BC002F0FB
:101DF0008CC003F08DC004F08AC005F08BC006F0E3
:101E00008CC007F08DC008F015EC13F001C08EF007
:101E100002C08FF003C090F004C091F0130E376E33
:101E2000CE0E386ECC0E396E3E0E3A6E260E056E14
:101E30009E0E066E780E076E3E0E086E8EC001F086
:101E40008FC002F090C003F091C004F015EC13F0C5
:101E500001C033F002C034F003C035F004C036F0E6
:101E6000B5EC10F033C092F034C093F035C094F06C
:101E700036C095F092C001F093C002F094C003F018
:101E800095C004F08EC005F08FC006F090C007F03A
:101E900091C008F015EC13F001C064F002C065F0C9
:101EA00003C066F004C067F0AA0E376EAA0E386E43
:101EB0002A0E396E3F0E3A6EEE0E056EE90E066E74
:101EC000910E076E3E0E086E8EC001F08FC002F0BC
:101ED00090C003F091C004F015EC13F001C033F092
:101EE00002C034F003C035F004C036F0B5EC10F099
:101EF00033C092F034C093F035C094F036C095F002
:101F000092C001F093C002F094C003F095C004F0B9
:101F10008AC005F08BC006F08CC007F08DC008F0B9
:101F200015EC13F001C068F002C069F003C06AF05C
:101F300004C06BF068C033F069C034F06AC035F09B
:101F40006BC036F064C037F065C038F066C039F059
:101F500067C03AF0B5EC10F033C060F034C061F007
:101F600035C062F036C063F0000E056E000E066EDE
:101F7000000E076E3F0E086E9AC001F09BC002F083
:101F80009CC003F09DC004F015EC13F001C092F06A
:101F900002C093F003C094F004C095F092C001F029
:101FA00093C002F094C003F095C004F09AC005F00D
:101FB0009BC006F09CC007F09DC008F015EC13F024
:101FC00001C07EF002C07FF003C080F004C081F049
:101FD0007CC006F07DC007F0000E07BEFF0E086E45
:101FE000096E010E7CEC1BF006C082F007C083F086
:101FF00008C084F009C085F086C005F087C006F0EF
:1020000088C007F089C008F060C037F061C038F0C0
:1020100062C039F063C03AF07EC033F07FC034F064
:1020200080C035F081C036F0B5EC10F033C001F05F
:1020300034C002F035C003F036C004F015EC13F0E4
:1020400001C06CF002C06DF003C06EF004C06FF010
:10205000D10E056EF70E066E170E076E370E086E60
:1020600082C001F083C002F084C003F085C004F098
:1020700015EC13F001C037F002C038F003C039F09E
:1020800004C03AF06CC033F06DC034F06EC035F06F
:102090006FC036F0B5EC10F033C070F034C071F0A2
:1020A00035C072F036C073F07EC047F07FC048F094
:1020B00080C049F081C04AF070C043F071C044F064
:1020C00072C045F073C046F089EC25F043C074F04F
:1020D00044C075F045C076F046C077F09AC037F03E
:1020E0009BC038F09CC039F09DC03AF074C033F00A
:1020F00075C034F076C035F077C036F0B5EC10F02E
:1021000033C078F034C079F035C07AF036C07BF057
:1021100078C033F079C034F07AC035F07BC036F047
:10212000800E056E710E066E310E076E3F0E086E44
:1021300082C001F083C002F084C003F085C004F0C7
:1021400015EC13F001C037F002C038F003C039F0CD
:1021500004C03AF0B5EC10F033C04BF034C04CF092
:1021600035C04DF036C04EF012003650800B3F6E39
:1021700036503624416E35AEC0EF10F0C2EF10F08D
:10218000C3EF10F041804150D8B4C9EF10F0CBEF4D
:1021900010F0E0EF10F04128D8A4D1EF10F0D3EF09
:1021A00010F0DBEF10F0000E336E000E346E000EF8
:1021B000356E000E366E358E000E366EE8EF10F07E
:1021C000000E336E000E346E000E356E000E366E4D
:1021D0003A50800B406E3F504018D8B4F2EF10F0E8
:1021E000F4EF10F0F5EF10F03F8C3A503A24406EC7
:1021F00039AEFDEF10F0FFEF10F000EF11F040806E
:102200004050D8B406EF11F008EF11F01DEF11F0B7
:102210004028D8A40EEF11F010EF11F018EF11F0D4
:10222000000E376E000E386E000E396E000E3A6EDC
:10223000398E000E3A6E25EF11F0000E376E000E4B
:10224000386E000E396E000E3A6E4150405CD8B0C8
:102250002CEF11F02EEF11F055EF11F03FAC33EFF2
:1022600011F035EF11F037EF11F0800E3F1A41C039
:1022700042F040C041F042C040F033C042F037C0AD
:1022800033F042C037F034C042F038C034F042C0BE
:1022900038F035C042F039C035F042C039F036C0B0
:1022A00042F03AC036F042C03AF0000E426E415061
:1022B00040C03BF03C6A3B5E000E3C5A3CBE6AEFBD
:1022C00011F03C5009E11A0E3B5CD8A06AEF11F006
:1022D0006CEF11F0A3EF11F03350341035103610BD
:1022E000D8A475EF11F078EF11F0010E79EF11F02D
:1022F000000E426E000E336E000E346E000E356E10
:10230000000E366E40C041F0ACEF11F042A08BEFF2
:1023100011F08DEF11F093EF11F0D89042300109D8
:10232000426E95EF11F0D890423233A09AEF11F03F
:102330009CEF11F09DEF11F0428E3634363235327B
:1023400034323332412A4050415CD8A0AAEF11F018
:10235000ACEF11F086EF11F03FBCB1EF11F0B3EF2D
:1023600011F0F3EF11F04150D8A4B9EF11F0BBEF29
:1023700011F0C5EF11F0000E336E000E346E000E3A
:10238000356E000E366E14EF13F03750332638508A
:102390003422395035223A50362236A0D2EF11F08D
:1023A000D4EF11F080EF12F042A0D9EF11F0DBEF83
:1023B00011F0E1EF11F0D89042300109426EE3EFE5
:1023C00011F0D890423233A0E8EF11F0EAEF11F0AB
:1023D000EBEF11F0428E363436323532343233324E
:1023E000412A80EF12F03750335C3850345839505E
:1023F00035583650800A3B6E3A50800A3B58D8B068
:1024000004EF12F006EF12F031EF12F03350375CA8
:102410003B6E345038583C6E355039583D6E36500E
:102420003A583E6EFF0E3B24336EFF0E3C20346E56
:10243000FF0E3D20356EFF0E3E20366E800E3F1A99
:10244000426C4250D8A427EF12F029EF12F039EF76
:1024500012F0010E3326000E34223522362239EFD7
:1024600012F03750335E3850345A3950355A3A509A
:10247000365A3350341035103610D8A442EF12F0CB
:1024800044EF12F079EF12F04250D8A44AEF12F064
:102490004CEF12F079EF12F0000E336E000E346E36
:1024A000000E356E000E366E14EF13F0D8903336F2
:1024B00034363536363642AE60EF12F062EF12F047
:1024C00063EF12F0338042A068EF12F06AEF12F06F
:1024D0006EEF12F0D880423670EF12F0D89042368C
:1024E0004150D8B476EF12F078EF12F079EF12F095
:1024F000410635AE7EEF12F080EF12F056EF12F08B
:10250000000E406E42AE87EF12F089EF12F0A1EF9D
:1025100012F042C03BF07F0E3B16D8B492EF12F09F
:1025200094EF12F098EF12F0010E406EA1EF12F04E
:1025300033A09DEF12F09FEF12F0A1EF12F094EF95
:1025400012F04050D8B4A7EF12F0A9EF12F0D4EF78
:1025500012F0010E3326000E34223522362236A028
:10256000B4EF12F0B6EF12F0D4EF12F033C03BF03C
:1025700034C03CF035C03DF036C03EF03E343E3213
:102580003D323C323B323BC033F03CC034F03DC0C6
:1025900035F03EC036F04128D8B4D1EF12F0D3EF79
:1025A00012F0D4EF12F0412A4128D8B4DAEF12F039
:1025B000DCEF12F0E4EF12F04150D8A4E2EF12F099
:1025C000E4EF12F0F6EF12F0000E336E000E346EF0
:1025D000000E356E000E366E4150D8A4F2EF12F0A8
:1025E000F4EF12F0F6EF12F0000E3F6E41A0FBEF99
:1025F00012F0FDEF12F000EF13F0358E01EF13F043
:10260000359ED8904130366E3FAE09EF13F00BEF98
:1026100013F00CEF13F0368E33C033F034C034F0C7
:1026200035C035F036C036F012000450800B0D6E08
:1026300004500424136E03AE20EF13F022EF13F0C6
:1026400023EF13F013801350D8B429EF13F02BEFBE
:1026500013F03EEF13F01328D8A431EF13F033EF4B
:1026600013F03BEF13F0000E016E000E026E000E31
:10267000036E000E046E038E46EF13F0000E016E23
:10268000000E026E000E036E000E046E0850800BEA
:102690000D1A08500824126E07AE51EF13F053EFD5
:1026A00013F054EF13F012801250D8B45AEF13F015
:1026B0005CEF13F06FEF13F01228D8A462EF13F061
:1026C00064EF13F06CEF13F0000E056E000E066E53
:1026D000000E076E000E086E078E77EF13F0000EE7
:1026E000056E000E066E000E076E000E086E12508C
:1026F000D8B47DEF13F07FEF13F087EF13F0135092
:10270000D8A485EF13F087EF13F091EF13F0000ECC
:10271000016E000E026E000E036E000E046E29EFB5
:1027200015F007500102F3CF18F0F4CF19F018504C
:102730000E6E0F6A106A116A1950146E156A166AC5
:10274000176A06500202F3CF18F0F4CF19F01850B0
:102750000E26000E0F221022112219501426000EF0
:1027600015221622172205500302F3CF18F0F4CFDA
:1027700019F018500E26000E0F22102211221950A7
:102780001426000E15221622172210C011F00FC0B9
:1027900010F00EC00FF00E6A05500202F3CF18F0D1
:1027A000F4CF19F018500E2619500F22000E1022E7
:1027B000000E112206500102F3CF18F0F4CF19F0E9
:1027C00018500E2619500F22000E1022000E112252
:1027D00010C011F00FC010F00EC00FF00E6A0550BF
:1027E0000102F3CF18F0F4CF19F018500E2619504B
:1027F0000F22000E1022000E112207500202F3CF0A
:1028000018F0F4CF19F01850142619501522000EA4
:102810001622000E172206500302F3CF18F0F4CF51
:1028200019F01850142619501522000E1622000E09
:10283000172207500302F3CF18F0F4CF19F0185005
:10284000096E19500A6E0B6A0C6A0BC00CF00AC0B4
:102850000BF009C00AF0096A095014260A50152223
:102860000B5016220C5017220EC009F00FC00AF0B0
:1028700010C00BF011C00CF0190E44EF14F0D890FA
:102880000C320B320A320932E82E3FEF14F00950B5
:1028900014260A5015220B5016220C50172210C075
:1028A00011F00FC010F00EC00FF00E6A125013C0DE
:1028B00009F00A6A0926000E0A22820E0924186EFF
:1028C000FF0E0A20196E7AEF14F0D89014361536E0
:1028D0001636173611AE6FEF14F071EF14F072EF79
:1028E00014F01480D8900E360F36103611361806B4
:1028F000D8A0190616AE7FEF14F081EF14F065EF43
:1029000014F0000E126E11AE88EF14F08AEF14F07E
:10291000AEEF14F0FF0E0E14096EFF0E0F140A6EC8
:10292000FF0E10140B6E7F0E11140C6E09500A105E
:102930000B100C10D8B49FEF14F0A1EF14F0A5EF1A
:1029400014F0010E126EAEEF14F014A0AAEF14F002
:10295000ACEF14F0AEEF14F0A1EF14F01250D8B4B5
:10296000B4EF14F0B6EF14F0DAEF14F0010E142601
:10297000000E15221622172217A0C1EF14F0C3EF84
:1029800014F0DAEF14F014C009F015C00AF016C004
:102990000BF017C00CF00C340C320B320A32093237
:1029A00009C014F00AC015F00BC016F00CC017F0E7
:1029B000184A192A19BEE5EF14F0195008E1182831
:1029C000D8A0E5EF14F0E7EF14F0F1EF14F0000EEB
:1029D000146E000E156E800E166E7F0E176E1FEFB2
:1029E00015F019BEFEEF14F0195006E11804D8B026
:1029F000FCEF14F0FEEF14F00AEF15F0000E146E69
:102A0000000E156E000E166E000E176E000E0D6E87
:102A10001FEF15F018C013F0FF0E1416FF0E151659
:102A20007F0E1616000E171613A019EF15F01BEFE8
:102A300015F01CEF15F0168ED8901330176E0D5050
:102A4000171214C001F015C002F016C003F017C031
:102A500004F01200C3EC21F07AEC24F00001DA6FEC
:102A60000D0EDA19D8B437EF15F039EF15F042EF43
:102A700015F0220EFB19D8A440EF15F042EF15F027
:102A800003EF17F001016A05D8A449EF15F04BEFE9
:102A900015F081EF16F081B650EF15F053EF15F0F9
:102AA000010E54EF15F0000E91EC27F0200E91EC82
:102AB00027F081B25EEF15F061EF15F0010E62EFC5
:102AC00015F0000E91EC27F0200E91EC27F0C10ECE
:102AD0000001A26F000EA36F260EA46F100EA56F4B
:102AE000020E91EC26F001C0A6F002C0A7F0CBECDC
:102AF00024F0C10E016E000E026ECAEC26F00150E9
:102B00000001DB6F000ED76F000ED66F94EF15F04B
:102B1000C10ED625D96E000ED721DA6EDF5091ECAA
:102B200027F00001D64BD72BDB51B86FB96BB851EA
:102B3000D65DD751800ABA6FB951800ABA59D8A068
:102B4000A4EF15F0A6EF15F088EF15F0200E91EC2C
:102B500027F0000E376E400E386E1C0E396EC60E12
:102B60003A6E030E91EC26F001C006F002C007F0A9
:102B7000086A096A000E7CEC1BF006C01EF007C054
:102B80001FF008C020F009C021F0000E1A6E400EA0
:102B90001B6E1C0E1C6E4B0E1D6E0DEC17F01AC03A
:102BA00033F01BC034F01CC035F01DC036F0B5EC5E
:102BB00010F033C0C6F034C0C7F035C0C8F036C01E
:102BC000C9F01C0E1E6E290E1F6E360E206E3C0EB6
:102BD000216EC6C01AF0C7C01BF0C8C01CF0C9C027
:102BE0001DF00DEC17F01AC0CAF01BC0CBF01CC0D2
:102BF000CCF01DC0CDF0CAC04BF0CBC04CF0CCC067
:102C00004DF0CDC04EF011EC0DF04BC0CEF04CC0ED
:102C1000CFF04DC0D0F04EC0D1F0CEC01EF0CFC02E
:102C20001FF0D0C020F0D1C021F0000E1A6E200E8F
:102C30001B6E800E1C6E450E1D6E0DEC17F01AC03B
:102C400033F01BC034F01CC035F01DC036F0330E1D
:102C5000376E930E386E880E396EC30E3A6EB5EC31
:102C600010F033C0D2F034C0D3F035C0D4F036C049
:102C7000D5F0BB0E0001A26F000EA36F190EA46F5A
:102C8000100EA56FD2C0A6F0D3C0A7F0D4C0A8F094
:102C9000D5C0A9F0CBEC24F0BB0E016E000E026E85
:102CA000CAEC26F001500001DB6F000ED96F000E58
:102CB000D86F67EF16F0BB0ED825D96E000ED9215C
:102CC000DA6EDF5091EC27F00001D84BD92BDB51A5
:102CD000B86FB96BB851D85DD951800ABA6FB95184
:102CE000800ABA59D8A077EF16F079EF16F05BEFAB
:102CF00016F0200E91EC27F00D0E91EC27F0FEEF70
:102D000016F0020E6A19D8A488EF16F08AEF16F0B2
:102D1000DFEF16F0C5EF16F088A091EF16F095EFF3
:102D200016F0B86BB82B97EF16F00001B86B88500F
:102D3000B819FE0BB819886EFEEF16F088A2A3EF43
:102D400016F0A7EF16F0B86BB82BA9EF16F000013C
:102D5000B86BB8478850B819FD0BB819886EFEEFEC
:102D600016F088A4B6EF16F0BAEF16F0B86BB82BD1
:102D7000BCEF16F00001B86BB847B8478850B819D7
:102D8000FB0BB819886EFEEF16F06B510001B86F9F
:102D9000B96BB951000AD8B4D0EF16F0FEEF16F0B7
:102DA000B851310AD8B48CEF16F0030AD8B49EEFAC
:102DB00016F0010AD8B4B1EF16F0FEEF16F0030ECC
:102DC0006A19D8A4E6EF16F0E8EF16F0FEEF16F059
:102DD00031EC27F06A0E0001FB25D96EDA6A010E8C
:102DE000DA22DF6A6B0E156E010E166E000E186E7B
:102DF000320E176E43EC1FF0FEEF16F0000E0001CE
:102E0000FB6F0CEF17F06A0EFB25D96EDA6A010E24
:102E1000DA22DAC0DFFFFB2B12001D50800B2A6E76
:102E20001D501D24316E1CAE18EF17F01AEF17F06D
:102E30001BEF17F031803150D8B421EF17F023EF9A
:102E400017F038EF17F03128D8A429EF17F02BEF3F
:102E500017F033EF17F0000E1A6E000E1B6E000E07
:102E60001C6E000E1D6E1C8E000E1D6E40EF17F0C6
:102E7000000E1A6E000E1B6E000E1C6E000E1D6EF4
:102E80002150800B2A1A21502124326E20AE4BEFA4
:102E900017F04DEF17F04EEF17F032803250D8B4E4
:102EA00054EF17F056EF17F06BEF17F03228D8A455
:102EB0005CEF17F05EEF17F066EF17F0000E1E6E76
:102EC000000E1F6E000E206E000E216E208E000E72
:102ED000216E73EF17F0000E1E6E000E1F6E000EB7
:102EE000206E000E216E1E501F1020102110D8A43D
:102EF0007CEF17F07EEF17F096EF17F0000E1A6ECA
:102F0000000E1B6E000E1C6E000E1D6E800E1C123D
:102F10007F0E1D122A501D121AC01AF01BC01BF082
:102F20001CC01CF01DC01DF0D9EF18F03150D8A402
:102F30009CEF17F09EEF17F0A8EF17F0000E1A6E37
:102F4000000E1B6E000E1C6E000E1D6ED9EF18F0E9
:102F5000325031C022F0236A225E000E235A7F0EC7
:102F600022242B6E000E23202C6E1AC026F01BC0CC
:102F700027F01CC028F01DC029F0000E1A6E000EAC
:102F80001B6E000E1C6E000E1D6E000E2D6E000ED0
:102F90002E6E000E2F6E000E306E000E326E09EF98
:102FA00018F03250D8B4D7EF17F0D9EF17F0F0EF90
:102FB00017F0D8902636273628362936D8901A3674
:102FC0001B361C361D3630AEE8EF17F0EAEF17F06F
:102FD000EBEF17F01A80D8902D362E362F3630367C
:102FE0001E50265C1F502758205028582150295821
:102FF000D8A0FDEF17F0FFEF17F008EF18F0308CB6
:103000001E50265E1F50275A2050285A2150295AF8
:10301000322A190E32640FEF18F011EF18F0D1EFC9
:1030200017F02650271028102910D8B41AEF18F0DE
:103030001CEF18F034EF18F02D8034EF18F0D89012
:103040001A361B361C361D3630AE29EF18F02BEF22
:1030500018F02CEF18F01A80D8902D362E362F3617
:1030600030362B06D8A02C061CAE39EF18F03BEFFB
:1030700018F01FEF18F0000E326E30AE42EF18F06D
:1030800044EF18F068EF18F0FF0E2D14226EFF0EBB
:103090002E14236EFF0E2F14246E7F0E3014256E17
:1030A0002250231024102510D8B459EF18F05BEFEC
:1030B00018F05FEF18F0010E326E68EF18F01AA0EA
:1030C00064EF18F066EF18F068EF18F05BEF18F097
:1030D0003250D8B46EEF18F070EF18F094EF18F08B
:1030E000010E1A26000E1B221C221D221DA07BEFA2
:1030F00018F07DEF18F094EF18F01AC022F01BC002
:1031000023F01CC024F01DC025F0253425322432C4
:103110002332223222C01AF023C01BF024C01CF03C
:1031200025C01DF02B4A2C2A2CBE9FEF18F02C50E6
:1031300008E12B28D8A09FEF18F0A1EF18F0ACEF12
:1031400018F0000E2C6E2B68000E1A6E000E1B6E0F
:10315000000E1C6E000E1D6E2CBEB9EF18F02C5028
:1031600006E12B04D8B0B7EF18F0B9EF18F0C7EFAD
:1031700018F0000E2C6E000E2B6E000E1A6E000E54
:103180001B6E000E1C6E000E1D6E000E2A6E2BC0F4
:1031900031F031A0CEEF18F0D0EF18F0D3EF18F0E7
:1031A0001C8ED4EF18F01C9ED89031301D6E8AEF23
:1031B00017F0120056C0D9FF57C0DAFFDECFF6FF76
:1031C000DDCFF7FF000EF86E0800F550250AD8A4F1
:1031D000ECEF18F0EEEF18F05CEF1AF056C0D9FFE4
:1031E00057C0DAFFDE2A000EDD22000E0001F56F67
:1031F000000EF46FF4C0FAF0F669F76956C0D9FF13
:1032000057C0DAFFDECFF6FFDDCFF7FF000EF86E16
:103210000800F5502E0AD8A410EF19F012EF19F09B
:1032200027EF19F056C0D9FF57C0DAFFDE2A000E8B
:10323000DD2256C007F057C008F058C009F059C049
:103240000AF095EC20F007C0F6F008C0F7F056C081
:10325000D9FF57C0DAFFDECF91F0DDCF92F091C0F9
:10326000F6FF92C0F7FF000EF86E0800F550640AF2
:10327000D8B43DEF19F03FEF19F04FEF19F091C0BE
:10328000F6FF92C0F7FF000EF86E0800F550690ACD
:10329000D8A44DEF19F04FEF19F07EEF19F058C098
:1032A000D9FF59C0DAFFDFCF5AF0020EDE26DFCF9A
:1032B0005BF0000EDD225AC0D9FF5BC0DAFFDECF23
:1032C0008CF0DDCF8DF0010E000191255A6E000EBD
:1032D00092215B6E56C0D9FF57C0DAFF5AC0DEFF9D
:1032E0005BC0DDFF54C01CF055C01DF08CC01EF04B
:1032F0008DC01FF056EC1CF072EF1AF056C0D9FFCB
:1033000057C0DAFFDECF91F0DDCF92F091C0F6FF2B
:1033100092C0F7FF000EF86E0800F5CF90F09DEF19
:1033200019F0914B922BB7EF19F06C0E906FB7EF2D
:1033300019F0000E906FB7EF19F0000190515A6E1E
:103340005B6A5B50000AD8B4A8EF19F099EF19F046
:103350005A504C0AD8B491EF19F02A0AD8B495EF14
:1033600019F00A0AD8B491EF19F099EF19F091C049
:10337000F6FF92C0F7FF000EF86E0800F550660ADF
:10338000D8A4C5EF19F0C7EF19F053EF1AF0FDEF0D
:1033900019F058C0D9FF59C0DAFFDFCF5AF0040E38
:1033A000DE26DFCF5BF0000EDD225AC0D9FF5BC006
:1033B000DAFFDECF8CF0DECF8DF0DECF8EF0DECF09
:1033C0008FF012EF1AF058C0D9FF59C0DAFFDFCFE3
:1033D0005AF0040EDE26DFCF5BF0000EDD225AC06D
:1033E000D9FF5BC0DAFFDECF8CF0DECF8DF0DECF11
:1033F0008EF0DECF8FF012EF1AF090515A6E5B6AAA
:103400005B50000AD8B407EF1AF012EF1AF05A50C6
:103410004C0AD8B4E3EF19F0200AD8B4C9EF19F078
:1034200012EF1AF0010E91255A6E000E92215B6E7A
:1034300056C0D9FF57C0DAFF5AC0DEFF5BC0DDFFC0
:103440003BEF1AF054C04BF055C04CF08CC04DF01F
:103450008DC04EF08EC04FF08FC050F091C0F6FF7F
:1034600092C0F7FF000EF86E0800F5CF51F015EC92
:1034700008F072EF1AF091C0F6FF92C0F7FF000E4D
:10348000F86E0800F5505A6E5B6A5B50000AD8B4BB
:103490004CEF1AF053EF1AF05A50660AD8B422EFE4
:1034A0001AF053EF1AF056C0D9FF57C0DAFFDE2AE0
:1034B000000EDD2272EF1AF056C0D9FF57C0DAFFB6
:1034C000DECFF6FFDDCFF7FF000EF86E0800F550F7
:1034D000016E026A54C003F055C004F0FCEC20F009
:1034E00053EF1AF01200E8C043F0E9C044F0EAC01C
:1034F00045F0EBC046F033C043F034C044F035C073
:1035000045F036C046F0810E376EFF0E386E43C070
:1035100039F044C03AF045C03BF046C03CF0180ECC
:1035200097EF1AF0D8903C323B323A323932E82EDB
:1035300092EF1AF039503724416E000E3820426E57
:1035400042BEACEF1AF0425009E1170E415CD8A020
:10355000ACEF1AF0AEEF1AF0B8EF1AF033C033F058
:1035600034C034F035C035F036C036F07BEF1BF098
:1035700042BEBDEF1AF0BFEF1AF02FEF1BF041C0B3
:1035800037F0FF0E386EFF0E396E7F0E3A6E000E6A
:103590003B6E3766CEEF1AF0D6EF1AF03B343B3273
:1035A0003A3239323832372EC9EF1AF038C03DF08E
:1035B00039C03EF03AC03FF03BC040F03D504314AC
:1035C000376E3E504414386E3F504514396E4050AB
:1035D00046143A6E3750381039103A10D8A4F3EF29
:1035E0001AF0F5EF1AF0F7EF1AF0AEEF1AF043C049
:1035F00037F044C038F045C039F046C03AF0200EEC
:1036000007EF1BF0D8903A32393238323732E82E91
:1036100002EF1BF03750381039103A10D8B413EFBE
:103620001BF015EF1BF01DEF1BF03D5043263E50E5
:1036300044223F504522405046223D1C376E3E1CDE
:10364000386E3F1C396E401C3A6E37504316385066
:103650004416395045163A50461673EF1BF043C0D6
:1036600037F044C038F045C039F046C03AF0200E7B
:103670003FEF1BF0D8903A32393238323732E82EE9
:103680003AEF1BF03750381039103A10D8A44BEFEE
:103690001BF04DEF1BF057EF1BF0000E436E000EBA
:1036A000446E000E456E000E466E73EF1BF0D89010
:1036B0004334376E4434386E4534396E46343A6E8E
:1036C0003750381039103A10D8B469EF1BF06BEF4F
:1036D0001BF073EF1BF0000E436E000E446E800E65
:1036E000456EBF0E466E43C033F044C034F045C053
:1036F00035F046C036F012000E6E0E50D8B483EF8F
:103700001BF085EF1BF0A7EF1BF009BE8CEF1BF041
:103710008AEF1BF0A7EF1BF006C00AF007C00BF002
:1037200008C00CF009C00DF00A1E0B1E0C1E0D1E69
:103730000A2A000E0B220C220D220AC010F00BC028
:1037400011F00CC012F00DC013F0AFEF1BF006C06B
:1037500010F007C011F008C012F009C013F00650B5
:10376000071008100910D8A4B8EF1BF0BAEF1BF02F
:10377000C4EF1BF0000E066E000E076E000E086E02
:10378000000E096E55EF1CF0960E0F6ECEEF1BF07B
:103790000F2AD8901332123211321032000E101448
:1037A0000A6E000E11140B6E000E12140C6EFE0E3B
:1037B00013140D6E0A500B100C100D10D8A4E3EF6B
:1037C0001BF0E5EF1BF0C8EF1BF0F3EF1BF00F2A27
:1037D000010E1026000E112212221322D89013324D
:1037E000123211321032000E10140A6E000E111433
:1037F0000B6E000E12140C6EFF0E13140D6E0A5099
:103800000B100C100D10D8A408EF1CF00AEF1CF0E0
:10381000E7EF1BF012EF1CF00F06D89010361136B0
:103820001236133612BE17EF1CF019EF1CF021EF01
:103830001CF0020E0F601FEF1CF021EF1CF00CEFCC
:103840001CF00FB026EF1CF028EF1CF029EF1CF045
:10385000129ED8900F320FC00AF00B6A0C6A0D6AE4
:103860000AC00DF00C6A0B6A0A6A0A5010120B505B
:1038700011120C5012120D5013120E50D8B443EF07
:103880001CF045EF1CF04DEF1CF009BE4CEF1CF096
:103890004AEF1CF04DEF1CF0138E10C006F011C063
:1038A00007F012C008F013C009F012001FBE5BEF52
:1038B0001CF05EEF1CF0010E5FEF1CF0000E286E96
:1038C0002850D8B466EF1CF068EF1CF06CEF1CF0C9
:1038D0001E6C1F1ED8B01F2A0001F7BF74EF1CF02A
:1038E00072EF1CF07AEF1CF0000E236E010E226EB8
:1038F0007EEF1CF0F6C022F0F7C023F0F4C024F0F5
:10390000F5C025F02850D8B488EF1CF08AEF1CF0E1
:10391000A1EF1CF02406D8A025062850D8A493EFC8
:103920001CF095EF1CF09BEF1CF0000E216E2B0E8F
:10393000206E9FEF1CF0000E216E2D0E206E20C019
:1039400028F0000E276E4F0E266E000E0101696FE3
:10395000DAEF1CF02606D8A027061A0E2624D96E08
:10396000010E2720DA6E1EC001F01FC002F0000E0B
:10397000046E0A0E036E23EC22F001C007F002C0B1
:1039800008F034EC26F00750300FDF6E2206D8A086
:1039900023062406D8A025061EC001F01FC002F091
:1039A000000E046E0A0E036E61EC21F001C01EF0E1
:1039B00002C01FF027BEE5EF1CF0275008E12604E7
:1039C000D8A0E5EF1CF0E7EF1CF0FDEF1CF01E5057
:1039D0001F10D8A4EEEF1CF0F0EF1CF0AAEF1CF0C3
:1039E00023BEFDEF1CF0235006E12204D8B0FBEF0C
:1039F0001CF0FDEF1CF0AAEF1CF02850D8B403EF28
:103A00001DF005EF1DF010EF1DF02606D8A02706CB
:103A10001A0E2624D96E010E2720DA6E28C0DFFF89
:103A20001CC011F01DC012F01A0E2624136E010ED8
:103A30002720146E24C015F025C016F0D0EC22F01B
:103A40001200999099929994989A000E98BA010E42
:103A5000966E000E846E84B002D0879201D0878269
:103A600087B202D0879401D0878487A402D0878050
:103A700001D08790000E01018D6F320E8C6F66ECC5
:103A800025F0000E01018D6F380E8C6FA3EC24F031
:103A9000000E01018D6F0A0E8C6F66EC25F0000E92
:103AA00001018D6F380E8C6FA3EC24F0000E010124
:103AB0008D6FC80E8C6F74EC26F0000E01018D6FB7
:103AC000380E8C6FA3EC24F0000E01018D6FC80E30
:103AD0008C6F74EC26F0000E0101926F380E916F1E
:103AE0009CEC27F0000E0101926F080E916F9CEC88
:103AF00027F0000E0101926F010E916F9CEC27F0F0
:103B0000B1C19BF1B2C19CF1D89001019B379C37A8
:103B1000040E9B25916F000E9C21926F9CEC27F068
:103B2000ADC19BF1AEC19CF1D89001019B379C3790
:103B3000AFC19DF1B0C19EF1D8909D379E37D8900E
:103B40009D379E379B519D259F6F9C519E21A06F55
:103B500013519F271451A023080E9F25916F000E2B
:103B6000A021926F9CEC27F0B5C195F1B6C196F1FA
:103B7000B3C197F1B4C198F1BEEC1FF01200033449
:103B800004340A6E0A50D8A4C8EF1DF0CAEF1DF025
:103B9000D4EF1DF0000E016E000E026E000E036EDB
:103BA000000E046E41EF1EF001C005F002C006F0E9
:103BB00003C007F004C008F0200EE4EF1DF0D89019
:103BC0000832073206320532E82EDFEF1DF00550CD
:103BD000096E038EFF0E0116FF0E0216FF0E03166E
:103BE000000E0416960E0A5E0ABEFBEF1DF0F9EFFA
:103BF0001DF011EF1EF00A50800A970FD8B003EFA6
:103C00001EF005EF1EF007EF1EF0CAEF1DF0D89072
:103C100004320332023201320A3E07EF1EF029EF6E
:103C20001EF01F0E0A6417EF1EF019EF1EF021EFB1
:103C30001EF0CAEF1DF0D890013602360336043666
:103C40000A060A50D8A427EF1EF029EF1EF01BEF3A
:103C50001EF00950D8B42FEF1EF031EF1EF039EFEF
:103C60001EF0041E031E021E016C000E022203221F
:103C7000042201C001F002C002F003C003F004C03E
:103C800004F01200000E1A14226E000E1B14236E94
:103C9000800E1C14246E7F0E1D14256E22502310DE
:103CA00024102510D8A457EF1EF059EF1EF061EF35
:103CB0001EF0000E1A6E000E1B6E000E1C6E000E23
:103CC0001D6E000E1E14226E000E1F14236E800E39
:103CD0002014246E7F0E2114256E225023102410F0
:103CE0002510D8A476EF1EF078EF1EF080EF1EF0BE
:103CF000000E1E6E000E1F6E000E206E000E216E56
:103D00001DAE85EF1EF087EF1EF090EF1EF01A6CCF
:103D10001B1ED8B01B2A1C1ED8B01C2A800E1D5694
:103D200021AE95EF1EF097EF1EF0A0EF1EF01E6C77
:103D30001F1ED8B01F2A201ED8B0202A800E215660
:103D4000000E1A1A000E1B1A000E1C1A800E1D1AE5
:103D5000000E1E1A000E1F1A000E201A800E211AC5
:103D60001E501A5C1F501B5820501C5821501D58C3
:103D7000D8B0BDEF1EF0BFEF1EF0C2EF1EF0D8901E
:103D8000C3EF1EF0D8801200ECC00BF0EDC00CF0B9
:103D9000EEC00DF0EFC00EF001C00BF002C00CF051
:103DA00003C00DF004C00EF00BC005F00CC006F00F
:103DB0000DC007F00EC008F0180EE4EF1EF0D8900A
:103DC0000832073206320532E82EDFEF1EF00550CA
:103DD000096E0A6A09500A10D8A4F1EF1EF0F3EF39
:103DE0001EF013EF1FF0D8900B34056E0C34066EE6
:103DF0000D34076E0E34086E0550061007100810BB
:103E0000D8A405EF1FF007EF1FF00DEF1FF0000E15
:103E1000026E020E016E42EF1FF0000E026E030EE4
:103E2000016E42EF1FF009280A10D8A41AEF1FF004
:103E30001CEF1FF03EEF1FF00BC005F00CC006F0AA
:103E40000DC007F00EC008F0090ED89005360636F2
:103E500007360836E82E25EF1FF00550061007102C
:103E60000810D8B436EF1FF039EF1FF0010E3AEF0B
:103E70001FF0000E016E026A42EF1FF0000E026E8C
:103E8000040E016E1200B5C119F0B6C11AF0B3C12B
:103E90001BF0B4C11CF0000E1E6E000E1D6E98EFDC
:103EA0001FF0100E1D181E10D8A459EF1FF05BEF65
:103EB0001FF065EF1FF0000E0B6E010E0A6E000E74
:103EC0000D6E020E0C6E2AEC20F01D501524D96EDA
:103ED0001E501620DA6EDF500DEC23F00001FD516C
:103EE000FE11D8A476EF1FF078EF1FF090EF1FF0CF
:103EF0000101B151B211D8B480EF1FF082EF1FF071
:103F00008AEF1FF0000E116E010E106E42EC25F0CC
:103F100090EF1FF0000E116E010E106EACEC25F04C
:103F200017C001F018C002F054EC26F01D4A1E2AFA
:103F300015C001F016C002F0CAEC26F001501D5C5D
:103F400002501E58D8A0A7EF1FF0A9EF1FF051EFA5
:103F50001FF00001FD51FE11D8A4B1EF1FF0B3EF27
:103F60001FF0BDEF1FF019C00AF01AC00BF01BC004
:103F70000CF01CC00DF02AEC20F01200010196BFDD
:103F8000CAEF1FF0965108E19505D8A0CAEF1FF0BF
:103F9000CCEF1FF029EF20F096BFDAEF1FF096511B
:103FA00007E1110E955DD8B0D8EF1FF0DAEF1FF0E2
:103FB00029EF20F098BFE5EF1FF0985108E1970531
:103FC000D8A0E5EF1FF0E7EF1FF029EF20F098BF32
:103FD000F5EF1FF0985107E1030E975DD8B0F3EFAE
:103FE0001FF0F5EF1FF029EF20F095C1B5F196C154
:103FF000B6F197C1B3F198C1B4F113EF20F07F0E81
:104000009525936F000E9621946FE4EC27F029EF2D
:1040100020F0BF0E9525936F000E9621946FE4EC6F
:1040200027F029EF20F097C199F198C19AF19A51A0
:10403000000AD8B41EEF20F0FFEF1FF09951010ADB
:10404000D8B4FFEF1FF0030AD8B409EF20F0FFEF58
:104050001FF012000BBE35EF20F00B5008E10A04F0
:10406000D8A035EF20F037EF20F094EF20F00BBE12
:1040700045EF20F00B5007E1110E0A5CD8B043EF7A
:1040800020F045EF20F094EF20F00DBE50EF20F02F
:104090000D5008E10C04D8A050EF20F052EF20F0B2
:1040A00094EF20F00DBE60EF20F00D5007E1030EFD
:1040B0000C5CD8B05EEF20F060EF20F094EF20F0C1
:1040C0000AC0B5F10BC0B6F10CC0B3F10DC0B4F12C
:1040D0007EEF20F07F0E0A24086E000E0B20096E82
:1040E000EBEC27F094EF20F0BF0E0A24086E000ED0
:1040F0000B20096EEBEC27F094EF20F00CC00EF0D3
:104100000DC00FF00F50000AD8B489EF20F06AEF0D
:1041100020F00E50010AD8B46AEF20F0030AD8B498
:1041200074EF20F06AEF20F01200000E0F6E000E08
:104130000E6E07C0D9FF08C0DAFFDECFF6FFDDCF75
:10414000F7FF000EF86E0800F5502A0AD8A4ABEF6E
:1041500020F0ADEF20F0E1EF20F007C0D9FF08C05C
:10416000DAFFDE2A000EDD2209C0D9FF0AC0DAFF1D
:10417000DFCF0BF0020EDE26DFCF0CF0000EDD22CB
:104180000BC0D9FF0CC0DAFFDECF0EF0DDCF0FF091
:10419000F7EF20F00EC001F00FC002F0000E046E29
:1041A0000A0E036E5DEC27F00D5001240E6E000E1A
:1041B00002200F6E07C0D9FF08C0DAFFDE2A000E0A
:1041C000DD2207C0D9FF08C0DAFFDECFF6FFDDCF62
:1041D000F7FF000EF86E0800F550D00F0D6E090EB7
:1041E0000D64F5EF20F0F7EF20F0CAEF20F00EC0DD
:1041F00007F00FC008F0120003500410D8B403EF0A
:1042000021F005EF21F00EEF21F003500410D8A4A7
:104210000CEF21F00EEF21F013EF21F001500CEC28
:1042200028F060EF21F020EE0AF00350D926045068
:10423000DA22DE50DE10D8B420EF21F022EF21F098
:104240003DEF21F020EE0AF00350D9260450DA2287
:1042500010EE03F00350E1260450E222DE50E65C4B
:10426000E650800A096EDE50800A0958D8B03BEF4C
:1042700021F03DEF21F060EF21F020EE03F003503C
:10428000D9260450DA22DECF05F0DDCF06F003C0D8
:10429000D9FF04C0DAFFDECF07F0DDCF08F005500C
:1042A0000724D96E06500820DA6E01C0DFFF20EE29
:1042B00003F00350D9260450DA22DE2A000EDD2254
:1042C0001200000E066E04BE6AEF21F068EF21F0C6
:1042D00070EF21F0036C041ED8B0042A010E066EA4
:1042E00002BE77EF21F075EF21F07DEF21F0016C38
:1042F000021ED8B0022A010E061A000E086E000E29
:10430000076E03500410D8B488EF21F08AEF21F033
:10431000B2EF21F0010E056E92EF21F0D890033636
:104320000436052A04AE97EF21F099EF21F08EEFC5
:1043300021F0D890073608360350015C045002582B
:10434000D8A0A5EF21F0A7EF21F0ACEF21F00350AA
:10435000015E0450025A0780D89004320332052EC1
:1043600099EF21F00650D8B4B8EF21F0BAEF21F060
:10437000BEEF21F0076C081ED8B0082A07C001F074
:1043800008C002F01200000E01011925D96EDA6A88
:10439000010EDA22DF6AABA4D0EF21F0D2EF21F0D8
:1043A000E6EF21F0000E1925D96EDA6A010EDA2245
:1043B000DF8202D8E6EF21F00500FA6EA751FD6E0C
:1043C000A851FE6EA951FF6EFA501200ABA2EBEF9E
:1043D00021F0EDEF21F002EF22F0000E010119258E
:1043E000D96EDA6A010EDA22DF8402D802EF22F0F7
:1043F0000500FA6EA451FD6EA551FE6EA651FF6E2A
:10440000FA501200000E01011925D96EDA6A010E68
:10441000DA22DF50D8B40FEF22F011EF22F020EFB4
:1044200022F002D81EEF22F00500FA6EA151FD6EB7
:10443000A251FE6EA351FF6EFA50120022EF22F03D
:1044400047EC27F01200000E066E02BE2CEF22F0A1
:104450002AEF22F032EF22F0016C021ED8B0022ABD
:10446000010E066E04BE39EF22F037EF22F03DEF69
:1044700022F0036C041ED8B0042A03500410D8B4F0
:1044800044EF22F046EF22F06AEF22F0010E056EB3
:104490004EEF22F0D89003360436052A04AE53EFCF
:1044A00022F055EF22F04AEF22F00350015C045055
:1044B0000258D8A05EEF22F060EF22F064EF22F005
:1044C0000350015E0450025AD89004320332052E84
:1044D00055EF22F00650D8B470EF22F072EF22F0C0
:1044E00076EF22F0016C021ED8B0022A01C001F062
:1044F00002C002F01200000E0114096E000E021438
:104500000A6E800E03140B6E7F0E04140C6E09509D
:104510000A100B100C10D8A490EF22F092EF22F0AA
:104520009AEF22F0000E016E000E026E000E036E76
:10453000000E046E000E0514096E000E06140A6EBD
:10454000800E07140B6E7F0E08140C6E09500A10B3
:104550000B100C10D8A4AFEF22F0B1EF22F0B9EF9E
:1045600022F0000E056E000E066E000E076E000EA5
:10457000086E055001180FE1065002180CE10750B3
:10458000031809E108500418D8B4C9EF22F0CBEFA2
:1045900022F0CEEF22F0D890CFEF22F0D880120098
:1045A00016BED5EF22F0D7EF22F0DDEF22F015C0D6
:1045B0001AF016C01BF0E1EF22F0000E1B6E000E89
:1045C0001A6E000E196E000E186EF3EF22F0000E38
:1045D000026E200E016E11C003F012C004F0FCEC5C
:1045E00020F0184A192A1A50185C1950800A176EC0
:1045F0001B50800A1758D8A000EF23F002EF23F0D9
:10460000E7EF22F013C00AF014C00BF011C00CF059
:1046100012C00DF0F1EC25F01200146E000E1424FF
:10462000086E096A020E0922EBEC27F00101B15174
:10463000B211D8B41EEF23F020EF23F024EF23F0C3
:10464000B54BB62B27EF23F0B507D8A0B60700016E
:10465000FD51FE11D8A42FEF23F031EF23F049EFE5
:1046600023F00101B151B211D8B439EF23F03BEF7F
:1046700023F043EF23F0000E116E010E106EACEC30
:1046800025F049EF23F0000E116E010E106E42EC82
:1046900025F012009D9A540E01018C6F2A0E8D6F29
:1046A000000E8E6FC8EC27F0080E7E6E900EAB6E7B
:1046B000240EAC6E350EAF6E000E7F6E1A0E010129
:1046C0008C6F500E8D6F000E8E6FD6EC27F0060E9D
:1046D00001018C6F500E8D6F000E8E6FCFEC27F0A6
:1046E0000C0E01018C6F500E8D6F000E8E6FDDEC85
:1046F00027F0000E0101176F000E196F000E5E6E9D
:10470000000E186F9D8A12008CC18EF18DC18FF141
:10471000050E0101906F8F358F338E33902F8BEF05
:1047200023F0010E8E178E478E4787508E19FB0B94
:104730008E19876E8CC18EF18DC18FF1040E906F32
:104740008F358F338E33902FA0EF23F0010E8E170D
:104750008E4787508E19FD0B8E19876E0F0E8416AB
:104760008CC18EF10F0E8E178E39F00B841287805C
:104770008790120001C003F002C004F0050E056E20
:10478000043404320332052EC0EF23F0010E031669
:104790000346034687500318FB0B0318876E01C0BE
:1047A00003F002C004F0040E056E04340432033238
:1047B000052ED5EF23F0010E03160346875003188C
:1047C000FD0B0318876E0F0E841601C003F00F0E49
:1047D00003160338F00B841287808790120004BE02
:1047E000FEEF23F004500310021006E10104D8B0DC
:1047F000FCEF23F0FEEF23F019EF24F001C005F0E9
:1048000002C006F003C007F004C008F0051E061E33
:10481000071E081E052A000E06220722082205C0D0
:1048200001F006C002F007C003F008C004F021EF59
:1048300024F001C001F002C002F003C003F004C084
:1048400004F01200F20EF66E4F0EF76E000EF86EC8
:1048500001EEADF010EE0AF00900F5CFEEFFE550E5
:10486000E150FAE1160EF66E500EF76E000EF86E7D
:104870000900F5CFFDF00900F5CFFEF001EE00F0E4
:104880008C0EEE6AE806FDE100EEE8F0150EEE6A29
:10489000E806FDE15E6A5F905F92000170EF27F02D
:1048A00095C05CF096C05DF064EF24F093C054F0C6
:1048B00094C055F05C0E566E000E576E97C058F0BF
:1048C00098C059F0DAEC18F05CC0F6FF5DC0F7FF55
:1048D000000EF86E0800F5500009D8A472EF24F01D
:1048E00074EF24F056EF24F0000E0001946F000ED8
:1048F000936F120001011851D8B481EF24F083EFB7
:1049000024F07AEF24F0000E5E24D96EDA6A010EEC
:10491000DA22DF50176F080E5E24D96EDA6A010EB4
:10492000DA22DF50016E5E2A070E5E649AEF24F0F1
:104930009CEF24F09EEF24F0000E5E6E9D9A180707
:104940009D8A015012008CC18EF18DC18FF1090E2C
:104950000101906F8F358F338E33902FAAEF24F0A3
:10496000010E8E178E478E4787508E19FB0B8E19BE
:10497000876E8DC18EF18F6B8EBF8F69010E8E1782
:104980008E4787508E19FD0B8E19876E8CC184FF60
:10499000878087901200A60E0001AA6F000EAB6FF1
:1049A000A2C0ACF0A3C0ADF0000EB06F000EAF6FB0
:1049B000000EB76F000EB66FAC0E936F000E946FC3
:1049C000A4C095F0A5C096F0AA0E976F000E986F40
:1049D00050EC24F00001AF51A225D96EB051A321B3
:1049E000DA6EDF6A120003C009F004C00AF001C0E9
:1049F00007F002C008F00DEF25F009C0D9FF0AC08A
:104A0000DAFFDF500B6E094A0A2A07C0D9FF08C037
:104A1000DAFF0BC0DFFF074A082A0506D8A0060602
:104A2000052806E10628D8A418EF25F01AEF25F08E
:104A3000FDEF24F0120001C003F002C004F0090EE3
:104A4000056E043404320332052E21EF25F0010EE9
:104A500003160346034687500318FB0B0318876EA3
:104A600002C003F0046A03BE0468010E0316034685
:104A700087500318FD0B0318876E01C084FF8780E1
:104A80008790120010500101B525126E1150B62109
:104A9000136E13BE57EF25F0135007E1110E125C91
:104AA000D8B055EF25F057EF25F065EF25F0105001
:104AB000B5271150B623B5C10AF0B6C10BF0B3C18A
:104AC0000CF0B4C10DF02AEC20F01200000E010130
:104AD000906F000E8F6F79EF25F0090E01018E6F38
:104AE0001C0EE82EFED78E2FFCD700F001018F4B55
:104AF000902B8C518F5D9051800A8E6F8D51800A62
:104B00008E59D8A086EF25F088EF25F06DEF25F0BF
:104B10001200000E471A000E481A000E491A800EA5
:104B20004A1A43C033F044C034F045C035F046C0A3
:104B300036F047C037F048C038F049C039F04AC0B5
:104B40003AF0B5EC10F033C043F034C044F035C057
:104B500045F036C046F0120010500101B55D126EEE
:104B60001150B659136E13BEBEEF25F0135008E175
:104B70001204D8A0BEEF25F0C0EF25F0CEEF25F04F
:104B80001050B55F1150B65BB5C10AF0B6C10BF05D
:104B9000B3C10CF0B4C10DF02AEC20F0120003C038
:104BA00005F004C006F001C007F002C008F005C01F
:104BB000F6FF06C0F7FF054A062A000EF86E07C08A
:104BC000D9FF08C0DAFF074A082A0800F5CFDFFF3F
:104BD000DF50D8A4EEEF25F0F0EF25F0D7EF25F069
:104BE0001200000E106E000E0F6E02EF26F00EC0C7
:104BF00001F0026A0CC003F00DC004F0FCEC20F0E0
:104C00000F4A102A0F500A24D96E10500B20DA6E6A
:104C1000DF500E6E0E50D8A410EF26F012EF26F0E3
:104C2000F7EF25F01200000E8D6E000E916E000E53
:104C30008C6E000E896E000E8E6E000E8A6E000E57
:104C40008F6E000E8B6E000E906E966897683F0E0A
:104C5000926E986893689968BF0E946E9568F80E86
:104C60009A6EF00EC116120008BE41EF26F00850F1
:104C700006E10704D8B03FEF26F041EF26F04FEFF2
:104C800026F007C009F008C00AF0091E0A1E094AEA
:104C90000A2A09C007F00AC008F053EF26F007C03F
:104CA00007F008C008F01200000E056E000E046E3A
:104CB00064EF26F0090E036E1C0EE82EFED7032EBD
:104CC000FCD700D0044A052A0150045C0550800A34
:104CD000036E0250800A0358D8A071EF26F073EFDC
:104CE00026F05AEF26F01200000E0101906F000E20
:104CF0008F6F81EF26F000D000D000D001018F4BE4
:104D0000902B8C518F5D9051800A8E6F8D51800A4F
:104D10008E59D8A08EEF26F090EF26F07BEF26F08C
:104D20001200056E05C003F003460346C250031887
:104D3000C30B0318C26EC280C282C2B2A2EF26F0B9
:104D4000A4EF26F09DEF26F0C450046E036AC35012
:104D50000324016E000E0420026E120001500210A6
:104D600003100410D8B4B7EF26F0B9EF26F0C1EF66
:104D700026F0000E011A000E021A000E031A800E11
:104D8000041A01C001F002C002F003C003F004C025
:104D900004F0120001C003F002C004F0D2EF26F0CC
:104DA000014A022A01C0D9FF02C0DAFFDF50D8A4AD
:104DB000DCEF26F0DEEF26F0D0EF26F00350015CAA
:104DC000016E04500258026E1200000E056E000EB5
:104DD000046EF0EF26F000D000D000D0044A052A7F
:104DE0000150045C0550800A036E0250800A03588B
:104DF000D8A0FDEF26F0FFEF26F0EBEF26F0120033
:104E0000000E0101906F000E8F6F09EF27F08F4B9E
:104E1000902B8C518F5D9051800A8E6F8D51800A3E
:104E20008E59D8A016EF27F018EF27F007EF27F0DC
:104E30001200000E056E000E046E21EF27F0044AEA
:104E4000052A0150045C0550800A036E0250800A56
:104E50000358D8A02EEF27F030EF27F01FEF27F0F0
:104E60001200000E096E010E086EEBEC27F0000E2A
:104E70000101B46F010EB36FB3C1B5F1B4C1B6F1A6
:104E8000000E026EC80E016E54EC26F01200080EE1
:104E900001011925D96EDA6A010EDA22AECFDFFFE1
:104EA000192B070E196557EF27F059EF27F05BEF25
:104EB00027F0000E196F182B120001500302F3CFD8
:104EC00005F0F4CF06F001500402F350062602501C
:104ED0000302F350062605C001F006C002F01200DE
:104EE0007BEC27F021EC1DF0F28EF28C868A77EFB6
:104EF00027F05AEF00F009EC28F013EC26F0FEEC56
:104F000027F086EC27F04AEC23F01200000EC16E69
:104F1000BA0EC06E000EC36E000EC46E010EC26EDD
:104F20001200016E9EA897EF27F099EF27F092EFFD
:104F300027F001C0ADFF120091C18CF192C18DF13B
:104F4000A3EC24F0C0EC27F0120091C18CF192C1C7
:104F50008DF184EC23F0C0EC27F0120006C001F0C4
:104F600007C002F01BEC25F0F2EC27F0120006C09F
:104F700001F007C002F0BAEC23F0F2EC27F01200C7
:104F8000010E01018D6FF40E8C6F74EC26F012008F
:104F90008CC1AAF18DC1ABF18EC1ACF112008CC1F4
:104FA000A4F18DC1A5F18EC1A6F112008CC1A7F1AB
:104FB0008DC1A8F18EC1A9F112008CC1A1F18DC1E2
:104FC000A2F18EC1A3F1120093C191F194C192F1AB
:104FD0009CEC27F0120008C006F009C007F0AEEC08
:104FE00027F01200010E026EF40E016EE5EC26F0C1
:104FF000120001000100010001000100000ED36E4B
:10500000000E9B6E1200AB98AB88120047EC27F0A5
:0C5010001200D09E1200010012001200DD
:020000040001F9
:06FFF800A0F4C4FFF8F7BD
:00000001FF
