:0400000041EF00F0DC
:100008005682FACF26F0FBCF27F0E1CF28F0E2CFD7
:1000180029F0D9CF2AF0DACF2BF0F2AC16EF00F0A6
:1000280018EF00F033EF00F09DAA1DEF00F01FEF6E
:1000380000F033EF00F09EAA24EF00F026EF00F066
:1000480033EF00F002D833EF00F00500FA6E53509A
:10005800FD6E5450FE6E5550FF6EFA5012002BC0C4
:10006800DAFF2AC0D9FF29C0E2FF28C0E1FF27C074
:0E007800FBFF26C0FAFF56921100EFEF0FF0CB
:05100000002564000062
:1010060076EC0DF0C7EC0FF0226E030E2218D8A472
:101016000FEF08F011EF08F0C1EF08F06C0E0001B9
:10102600C419D8A419EF08F01BEF08F062EF08F016
:10103600C40E016E000E026E85EC11F001C020F0A8
:1010460002C021F0000E256E000E246E3BEF08F064
:10105600C50E2424D96E000E2520DA6EC40E242473
:10106600E16E000E2520E26EDFCFE7FF244A252A37
:101076002050245C2550800A1E6E2150800A1E587E
:10108600D8A048EF08F04AEF08F02BEF08F0ECEC98
:1010960011F0C40E156E000E166E5BEC0BF0C40E4E
:1010A600016E000E026E85EC11F0C30E0124D96E9E
:1010B600000E0220DA6E200EDF6EBCEF08F0640E22
:1010C600C419D8A469EF08F06BEF08F0BCEF08F07C
:1010D600A3EF08F088A072EF08F076EF08F01E6A1A
:1010E6001E2A77EF08F01E6A88501E18FE0B1E187F
:1010F600886EBCEF08F088A283EF08F087EF08F04F
:101106001E6A1E2A88EF08F01E6A1E4688501E18A0
:10111600FD0B1E18886EBCEF08F088A495EF08F04A
:1011260099EF08F01E6A1E2A9AEF08F01E6A1E46FC
:101136001E4688501E18FB0B1E18886EBCEF08F062
:10114600C5511E6E1F6A1F50000AD8B4ADEF08F0D5
:10115600BCEF08F01E50310AD8B46DEF08F0030A50
:10116600D8B47EEF08F0010AD8B490EF08F0BCEFCF
:1011760008F0000E0001C46FD8EF08F0C40E016E2F
:10118600000E026E85EC11F00150236EC40E23246E
:10119600D96EDA6A000EDA2222C0DFFFC50E2324DA
:1011A600D96EDA6A000EDA22DF6A120000017EBF0B
:1011B600DFEF08F0E2EF08F0010EE3EF08F0000EB3
:1011C600856F8551D8B4EAEF08F0ECEF08F0F0EF40
:1011D60008F07D6D7E1FD8B07E2BC2BFF7EF08F0FA
:1011E600F5EF08F0FDEF08F0000E826F010E816F3B
:1011F60001EF09F0C1C081F0C2C082F0BFC083F028
:10120600C0C084F08551D8B40BEF09F00DEF09F09A
:1012160024EF09F08307D8A084078551D8A416EFD8
:1012260009F018EF09F01EEF09F0000E806F2B0E83
:101236007F6F22EF09F0000E806F2D0E7F6F7FC04B
:1012460085F0000E876F1F0E866F000E01011F6F5F
:101256005EEF09F08607D8A08707000E8625D96EAF
:10126600010E8721DA6E7DC060F07EC061F0000E4F
:10127600636F0A0E626FD6EC0DF060C066F061C057
:1012860067F0C9EC10F000016651300FDF6E810780
:10129600D8A082078307D8A084077DC060F07EC0EF
:1012A60061F0000E636F0A0E626F13EC0DF060C002
:1012B6007DF061C07EF0000187BF6AEF09F08751BB
:1012C60008E18605D8A06AEF09F06CEF09F082EF15
:1012D60009F07D517E11D8A473EF09F075EF09F07E
:1012E6002DEF09F082BF82EF09F0825106E18105F8
:1012F600D8B080EF09F082EF09F02DEF09F08551A3
:10130600D8B488EF09F08AEF09F095EF09F086075F
:10131600D8A08707000E8625D96E010E8721DA6EC2
:1013260085C0DFFF7BC070F07CC071F0000E8625A3
:10133600726F010E8721736F83C074F084C075F0DD
:101346002FEC0EF01200999099929994989A000EAB
:1013560098BA010E966E000E846E84B002D0879203
:1013660001D0878287B202D0879401D0878487A470
:1013760002D0878001D08790000E0001616F320E87
:10138600606F61EC10F0000E0001616F380E606F47
:101396009FEC0FF0000E0001616F0A0E606F61ECAA
:1013A60010F0000E0001616F380E606F9FEC0FF0B9
:1013B600000E0001616FC80E606F68EC11F0000E40
:1013C6000001616F380E606F9FEC0FF0000E000198
:1013D600616FC80E606F68EC11F0000E0001666F59
:1013E600380E656F38EC12F0000E0001666F080EBD
:1013F600656F38EC12F0000E0001666F010E656F26
:1014060038EC12F04DC06FF04EC070F0D89000016D
:101416006F377037040E6F25656F000E7021666F8B
:1014260038EC12F049C06FF04AC070F0D890000155
:101436006F3770374BC071F04CC072F0D89071376F
:101446007237D890713772376F517125736F70513B
:101456007221746F3F50732740507423080E732512
:10146600656F000E7421666F38EC12F051C069F09A
:1014760052C06AF04FC06BF050C06CF0D6EC0BF067
:1014860012008AC0D9FF8BC0DAFFDECFF6FFDDCFB0
:10149600F7FF000EF86E0800F550250AD8A456EF9F
:1014A6000AF058EF0AF0C7EF0AF08AC0D9FF8BC0DE
:1014B600DAFFDE2A000EDD22000E0001C06F000EEC
:1014C600BF6FBFC0C3F0C169C2698AC0D9FF8BC0F4
:1014D600DAFFDECF94F0DDCF95F094C0F6FF95C02D
:1014E600F7FF000EF86E0800F550640AD8B47EEFD8
:1014F6000AF080EF0AF090EF0AF094C0F6FF95C06C
:10150600F7FF000EF86E0800F550690AD8A48EEFB2
:101516000AF090EF0AF0BEEF0AF08CC0D9FF8DC03A
:10152600DAFFDFCF8EF0020EDE26DFCF8FF0000E61
:10153600DD228EC0D9FF8FC0DAFFDECF90F0DDCF7F
:1015460091F0010E94258E6F000E95218F6F8AC043
:10155600D9FF8BC0DAFF8EC0DEFF8FC0DDFF88C0EB
:101566007BF089C07CF090C07DF091C07EF0D9EC14
:1015760008F0DEEF0AF08AC0D9FF8BC0DAFFDE2A58
:10158600000EDD22DEEF0AF08AC0D9FF8BC0DAFF3B
:10159600DECFF6FFDDCFF7FF000EF86E0800F55040
:1015A6000001606F616B88C062F089C063F0ADECCA
:1015B6000CF0BEEF0AF0120022EC12F0A6EC09F0D5
:1015C600F28EF28C868A81B6EBEF0AF0EEEF0AF025
:1015D600010EEFEF0AF0000E300F16EC12F0200E9F
:1015E60016EC12F081B2FAEF0AF0FDEF0AF0010EE6
:1015F600FEEF0AF0000E300F16EC12F0200E16EC7D
:1016060012F0B70E00019E6F000E9F6F010EA06FC5
:10161600100EA16F020E0BEC11F060C0A2F061C0BB
:10162600A3F077EC0FF0B70E0001606F000E616F4C
:101636004BEC11F000016051BC6F000EBE6F000E46
:10164600BD6F32EF0BF0B70EBD25D96E000EBE2171
:10165600DA6EDF5016EC12F00001BD4BBE2BBC510A
:10166600B46FB56BB451BD5DBE51800AB66FB5514E
:10167600800AB659D8A042EF0BF044EF0BF026EFE4
:101686000BF0200E16EC12F0030E16EC12F0040E00
:101696000001B56F2C0EB46FAB0EE82EFED7B42F3B
:1016A600FCD7B52FFAD700D0E6EF0AF041EF00F0ED
:1016B60051C018F052C019F04FC01AF050C01BF0BC
:1016C600000E1D6E000E1C6EB1EF0BF01C501524A3
:1016D600D96E1D501620DA6E0D0EDE18D8A476EFE0
:1016E6000BF078EF0BF086EF0BF0000E0B6E010E91
:1016F6000A6E000E0D6E020E0C6E42EC0CF01C4AC9
:101706001D2AAFEF0BF01C501524D96E1D50162064
:10171600DA6EDF506EEC0EF047504810D8A496EF04
:101726000BF098EF0BF0AFEF0BF04D504E10D8B416
:101736009FEF0BF0A1EF0BF0A9EF0BF0000E116E6F
:10174600010E106E84EC10F0AFEF0BF0000E116E70
:10175600010E106EA7EC10F01C4A1D2A15C001F0F0
:1017660016C002F085EC11F001501C5C02501D58A9
:10177600D8A0C0EF0BF0C2EF0BF069EF0BF04750AB
:101786004810D8A4C9EF0BF0CBEF0BF0D5EF0BF058
:1017960018C00AF019C00BF01AC00CF01BC00DF0EF
:1017A60042EC0CF0120000016ABFE2EF0BF06A5146
:1017B60008E16905D8A0E2EF0BF0E4EF0BF041EF8A
:1017C6000CF06ABFF2EF0BF06A5107E1110E695D8A
:1017D600D8B0F0EF0BF0F2EF0BF041EF0CF06CBF6E
:1017E600FDEF0BF06C5108E16B05D8A0FDEF0BF097
:1017F600FFEF0BF041EF0CF06CBF0DEF0CF06C51EE
:1018060007E1030E6B5DD8B00BEF0CF00DEF0CF09B
:1018160041EF0CF069C051F06AC052F06BC04FF056
:101826006CC050F02BEF0CF07F0E6925676F000E31
:101836006A21686F80EC12F041EF0CF0BF0E69254B
:10184600676F000E6A21686F80EC12F041EF0CF0B2
:101856006BC06DF06CC06EF06E51000AD8B436EFF6
:101866000CF017EF0CF06D51010AD8B417EF0CF01D
:10187600030AD8B421EF0CF017EF0CF012000BBEE0
:101886004DEF0CF00B5008E10A04D8A04DEF0CF018
:101896004FEF0CF0ACEF0CF00BBE5DEF0CF00B5005
:1018A60007E1110E0A5CD8B05BEF0CF05DEF0CF0AF
:1018B600ACEF0CF00DBE68EF0CF00D5008E10C0417
:1018C600D8A068EF0CF06AEF0CF0ACEF0CF00DBE90
:1018D60078EF0CF00D5007E1030E0C5CD8B076EFF4
:1018E6000CF078EF0CF0ACEF0CF00AC051F00BC026
:1018F60052F00CC04FF00DC050F096EF0CF07F0E7A
:101906000A24086E000E0B20096E87EC12F0ACEF6D
:101916000CF0BF0E0A24086E000E0B20096E87EC31
:1019260012F0ACEF0CF00CC00EF00DC00FF00F5023
:10193600000AD8B4A1EF0CF082EF0CF00E50010AA9
:10194600D8B482EF0CF0030AD8B48CEF0CF082EF17
:101956000CF01200000162516311D8B4B5EF0CF01F
:10196600B7EF0CF0C0EF0CF062516311D8A4BEEFD4
:101976000CF0C0EF0CF0C5EF0CF06051A8EC12F0C3
:1019860012EF0DF020EE0AF06251D9266351DA22E9
:10199600DE50DE10D8B4D2EF0CF0D4EF0CF0EFEF3F
:1019A6000CF020EE0AF06251D9266351DA2210EECD
:1019B60003F06251E1266351E222DE50E65CE65016
:1019C600800A686FDE50800A6859D8B0EDEF0CF0D7
:1019D600EFEF0CF012EF0DF020EE03F06251D92676
:1019E6006351DA22DECF64F0DDCF65F062C0D9FF45
:1019F60063C0DAFFDECF66F0DDCF67F0645166259F
:101A0600D96E65516721DA6E60C0DFFF20EE03F004
:101A16006251D9266351DA22DE2A000EDD22120037
:101A2600000E0001656F63BF1DEF0DF01BEF0DF09B
:101A360023EF0DF0626D631FD8B0632B010E656F47
:101A460061BF2AEF0DF028EF0DF030EF0DF0606D5D
:101A5600611FD8B0612B010E651B000E676F000E6B
:101A6600666F62516311D8B43BEF0DF03DEF0DF098
:101A760065EF0DF0010E646F45EF0DF0D8906237FB
:101A86006337642B63AF4AEF0DF04CEF0DF041EF77
:101A96000DF0D890663767376251605D63516159C2
:101AA600D8A058EF0DF05AEF0DF05FEF0DF0625130
:101AB600605F6351615B6681D89063336233642FE4
:101AC6004CEF0DF06551D8B46BEF0DF06DEF0DF0E6
:101AD60071EF0DF0666D671FD8B0672B66C060F0BA
:101AE60067C061F012002C0E4624D96EDA6A000E29
:101AF600DA22DF6AABA482EF0DF084EF0DF099EFE6
:101B06000DF02C0E4624D96EDA6A000EDA22DF8238
:101B160002D899EF0DF00500FA6E0001ED51FD6E49
:101B2600EE51FE6EEF51FF6EFA501200ABA29EEF21
:101B36000DF0A0EF0DF0B5EF0DF02C0E4624D96E8A
:101B4600DA6A000EDA22DF8402D8B5EF0DF005005E
:101B5600FA6E0001EA51FD6EEB51FE6EEC51FF6E1E
:101B6600FA5012002C0E4624D96EDA6A000EDA22DA
:101B7600DF50D8B4C1EF0DF0C3EF0DF0D3EF0DF089
:101B860002D8D1EF0DF00500FA6E0001E751FD6EA7
:101B9600E851FE6EE951FF6EFA501200D5EF0DF0D6
:101BA60001EC12F01200000E0001656F61BFE0EF5C
:101BB6000DF0DEEF0DF0E6EF0DF0606D611FD8B0B1
:101BC600612B010E656F63BFEDEF0DF0EBEF0DF0CE
:101BD600F1EF0DF0626D631FD8B0632B6251631194
:101BE600D8B4F8EF0DF0FAEF0DF01EEF0EF0010E7F
:101BF600646F02EF0EF0D89062376337642B63AFE1
:101C060007EF0EF009EF0EF0FEEF0DF06251605D8A
:101C160063516159D8A012EF0EF014EF0EF018EFD1
:101C26000EF06251605F6351615BD890633362333B
:101C3600642F09EF0EF06551D8B424EF0EF026EFAD
:101C46000EF02AEF0EF0606D611FD8B0612B60C0F8
:101C560060F061C061F01200000175BF35EF0EF053
:101C660037EF0EF03DEF0EF074C079F075C07AF0E4
:101C760041EF0EF0000E7A6F000E796F000E786F4E
:101C8600000E776F54EF0EF0000E616F200E606F3E
:101C960070C062F071C063F0ADEC0CF00001774BE0
:101CA600782B7951775D7851800A766F7A51800A60
:101CB6007659D8A061EF0EF063EF0EF047EF0EF005
:101CC60072C069F073C06AF070C06BF071C06CF0DE
:101CD6003DEC10F01200146E000E1424086E096A12
:101CE600020E092287EC12F04D504E10D8B47EEF4A
:101CF6000EF080EF0EF084EF0EF0514A522A87EF75
:101D06000EF05106D8A0520647504810D8A48EEFC0
:101D16000EF090EF0EF0A7EF0EF04D504E10D8B427
:101D260097EF0EF099EF0EF0A1EF0EF0000E116E88
:101D3600010E106EA7EC10F0A7EF0EF0000E116E5C
:101D4600010E106E84EC10F012009D9A060E000132
:101D5600606F100E616F000E626F64EC12F0080E79
:101D66007E6E900EAB6E240EAC6E350EAF6E000E10
:101D76007F6E520E0001606F250E616F000E626F5E
:101D860072EC12F0400E0001606F250E616F000EBE
:101D9600626F6BEC12F0460E0001606F250E616FEC
:101DA600000E626F79EC12F0000E436E000E466E66
:101DB600000E456E000E446E9D8A120060C062F0F1
:101DC60061C063F0050E0001646F633563336233EF
:101DD600642FE8EF0EF0010E6217624762478750E4
:101DE6006219FB0B6219876E60C062F061C063F016
:101DF600040E646F633563336233642FFDEF0EF0B8
:101E0600010E6217624787506219FD0B6219876ED1
:101E16000F0E841660C062F00F0E62176239F00B67
:101E2600841287808790120001C003F002C004F07C
:101E3600050E056E043404320332052E1DEF0FF035
:101E4600010E03160346034687500318FB0B0318BF
:101E5600876E01C003F002C004F0040E056E043460
:101E660004320332052E32EF0FF0010E031603463D
:101E760087500318FD0B0318876E0F0E841601C0DA
:101E860003F00F0E03160338F00B84128780879039
:101E9600120098C09CF099C09DF061EF0FF096C0BB
:101EA60088F097C089F09C0E00018A6F000E8B6F38
:101EB6009AC08CF09BC08DF044EC0AF09CC0F6FFF3
:101EC6009DC0F7FF000EF86E0800F5500009D8A473
:101ED6006FEF0FF071EF0FF052EF0FF0000E0001F1
:101EE600976F000E966F1200A20E0001A66F000EED
:101EF600A76F9EC0A8F09FC0A9F0000EAC6F000EA1
:101F0600AB6F000EB36F000EB26FA80E966F000E89
:101F1600976FA0C098F0A1C099F0A60E9A6F000E18
:101F26009B6F4CEC0FF00001AB519E25D96EAC5166
:101F36009F21DA6EDF6A120060C062F061C063F052
:101F4600090E0001646F633563336233642FA6EFB5
:101F56000FF0010E62176247624787506219FB0B4A
:101F66006219876E61C062F0636B62BF6369010EBE
:101F76006217624787506219FD0B6219876E60C04F
:101F860084FF8780879012004450D8B4CDEF0FF0BD
:101F9600CFEF0FF0C7EF0FF02C0E4524D96EDA6A9B
:101FA600000EDA22DF50436E340E4524D96EDA6A0B
:101FB600000EDA22DF50016E452A070E4564E6EF71
:101FC6000FF0E8EF0FF0EAEF0FF0000E456E9D9A66
:101FD60044069D8A015012002A0EF66E250EF76EF3
:101FE600000EF86E00EE47F010EE0CF00900F5CF8B
:101FF600EEFFE550E150FAE101EE00F0200EEE6A48
:10200600E806FDE100EEBFF0280EEE6AE806FDE107
:1020160000EE2CF01B0EEE6AE806FDE15690569295
:102026000001DFEF0AF001C003F002C004F0090E60
:10203600056E043404320332052E1CEF10F0010E37
:1020460003160346034687500318FB0B0318876ED7
:1020560002C003F0046A03BE0468010E03160346B9
:1020660087500318FD0B0318876E01C084FF878015
:1020760087901200000E00016F6F000E6E6F50EF1A
:1020860010F06DC060F0616B6BC062F06CC063F005
:10209600ADEC0CF000016E4B6F2B6E516925D96EBD
:1020A6006F516A21DA6EDF506D6F6D51D8A45EEF05
:1020B60010F060EF10F044EF10F01200000E000177
:1020C600646F000E636F74EF10F0090E0001626F0B
:1020D6001C0EE82EFED7622FFCD700F00001634BE2
:1020E600642B6051635D6451800A626F6151800A9E
:1020F6006259D8A081EF10F083EF10F068EF10F06E
:10210600120010505124126E11505220136E13BE3D
:1021160098EF10F0135007E1110E125CD8B096EF4D
:1021260010F098EF10F0A6EF10F010505126115055
:10213600522251C00AF052C00BF04FC00CF050C0F2
:102146000DF042EC0CF012001050515C126E115062
:102156005258136E13BEB8EF10F0135008E1120474
:10216600D8A0B8EF10F0BAEF10F0C8EF10F010508A
:10217600515E1150525A51C00AF052C00BF04FC076
:102186000CF050C00DF042EC0CF01200000167BFDD
:10219600D7EF10F0675106E16605D8B0D5EF10F01D
:1021A600D7EF10F0E5EF10F066C068F067C069F091
:1021B600681F691F684B692B68C066F069C067F0C5
:1021C600E9EF10F066C066F067C067F01200000E17
:1021D6008D6E000E916E000E8C6E000E896E000ED6
:1021E6008E6E000E8A6E000E8F6E000E8B6E000EC7
:1021F600906E966897683F0E926E98689368996895
:10220600BF0E946E9568F80E9A6EF00EC116120007
:102216000001646F64C062F0000162476247C25009
:102226006219C30B6219C26EC280C282C2B21EEFAD
:1022360011F020EF11F019EF11F0C4500001636F97
:10224600626BC3506225606F000E6321616F1200DE
:10225600000E056E000E046E3BEF11F0090E036EC4
:102266001C0EE82EFED7032EFCD700D0044A052A02
:102276000150045C0550800A036E0250800A035820
:10228600D8A048EF11F04AEF11F031EF11F012002B
:1022960060C062F061C063F054EF11F00001604B62
:1022A600612B60C0D9FF61C0DAFFDF50D8A45EEFB2
:1022B60011F060EF11F051EF11F000016251605D15
:1022C600606F63516159616F1200000E0001646F07
:1022D600000E636F75EF11F000D000D000D0000142
:1022E600634B642B6051635D6451800A626F615178
:1022F600800A6259D8A082EF11F084EF11F06FEFD7
:1023060011F0120001C003F002C004F08DEF11F0CD
:10231600014A022A01C0D9FF02C0DAFFDF50D8A461
:1023260097EF11F099EF11F08BEF11F00350015C6C
:10233600016E04500258026E1200000E056E000E69
:10234600046EABEF11F000D000D000D0044A052A8D
:102356000150045C0550800A036E0250800A03583F
:10236600D8A0B8EF11F0BAEF11F0A6EF11F01200F5
:10237600000E0001646F000E636FC4EF11F0634B33
:10238600642B6051635D6451800A626F6151800AFB
:102396006259D8A0D1EF11F0D3EF11F0C2EF11F0CE
:1023A6001200000E056E000E046EDCEF11F0044AFA
:1023B600052A0150045C0550800A036E0250800A0B
:1023C6000358D8A0E9EF11F0EBEF11F0DAEF11F0B6
:1023D6001200000E096E010E086E87EC12F0000E58
:1023E600506E010E4F6E4FC051F050C052F0000EAD
:1023F600026EC80E016E2BEC11F01200340E46244C
:10240600D96EDA6A000EDA22AECFDFFF462A070E51
:10241600466410EF12F012EF12F014EF12F0000EF5
:10242600466E442A12000001606F9EA81DEF12F04E
:102436001FEF12F018EF12F060C0ADFF1200A6EC0D
:1024460012F0EAEC10F09BEC12F02DEC12F0A8EC76
:102456000EF01200000EC16EBA0EC06E000EC36EF4
:10246600000EC46E010EC26E120065C060F066C03A
:1024760061F09FEC0FF05CEC12F0120065C060F0AA
:1024860066C061F0E1EC0EF05CEC12F0120006C0E2
:1024960001F007C002F016EC10F08EEC12F01200FC
:1024A60006C001F007C002F017EC0FF08EEC12F038
:1024B6001200010E0001616FF40E606F68EC11F0FE
:1024C600120060C053F061C054F062C055F01200B3
:1024D60060C0EAF061C0EBF062C0ECF0120060C0D0
:1024E600EDF061C0EEF062C0EFF0120060C0E7F000
:1024F60061C0E8F062C0E9F0120067C065F068C02C
:1025060066F038EC12F0120008C006F009C007F0B9
:102516004AEC12F01200010E026EF40E016EA0ECEF
:1025260011F012000100010001000100010001008C
:10253600000ED36E000E9B6E1200AB98AB88120095
:0E25460001EC12F01200D09E120012001200E2
:020000040001F9
:06FFF800A0F4C4FFF8F7BD
:00000001FF
